S01500005765656B32377365676D656E742E7372656327
S113000045C0000060C000005EC000005CC000008D
S11300105AC0000058C0000056C0000054C0000080
S113002052C0000050C000004EC000004CC0000090
S11300304AC0000048C0000046C0000044C00000A0
S113004042C0000040C000003EC000003CC00000B0
S11300503AC0000038C0000036C0000034C00000C0
S113006032C0000030C000002EC000002CC00000D0
S11300702AC0000028C0000026C0000024C00000E0
S113008022C0000020C000001EC0000011241FBEBA
S1130090CFEFD0E1DEBFCDBF11E0A0E0B1E0E0E8FA
S11300A0F1E000E00BBF02C007900D92A031B10750
S11300B0D9F721E0A0E1B1E001C01D92A231B2075D
S11300C0E1F73AD05BC09CCF20E030E008C0EFEC11
S11300D0F7E03197F1F700C000002F5F3F4F28177A
S11300E03907ACF30895813191051CF089E788BB89
S11300F00895FC01E050FF4F808188BB0895109261
S11301001101109210010895809110019091110134
S1130110019690931101809310010895809110012C
S113012090911101009711F4EACF089501979093EB
S113013011018093100108958FEF87BB14BA11BA8F
S113014083B3882321F0E0DF88EC90E0BDDF80B347
S1130150882321F0E3DF88EC90E0B6DF80B38823C6
S113016039F083B3882321F0CADF88EC90E0ACDF58
S11301708091100190911101B6DFE2CFF894FFCF86
S11301803F065B4F666D7D077F6F777C395E7971C3
S9030000FC
