S01000005765656B357370692E7372656307
S113000045C000004BC0000049C0000047C00000CC
S113001045C0000043C0000041C000003FC00000D4
S11300203DC000003BC0000039C0000037C00000E4
S113003035C0000033C0000031C000002FC00000F4
S11300402DC000002BC0000029C0000027C0000004
S113005025C0000023C0000021C000001FC0000014
S11300601DC000001BC0000019C0000017C0000024
S113007015C0000013C0000011C000000FC0000034
S11300800DC000000BC0000009C0000011241FBEF9
S1130090CFEFD0E1DEBFCDBFEFD029C1B1CF8FEF1D
S11300A087BB87B3877F87BB88B3816088BB82E5C2
S11300B08DB908958FB9779BFECF089598B321E049
S11300C030E002C0220F331F8A95E2F720952923DE
S11300D028BB089598B321E030E002C0220F331FFB
S11300E08A95E2F7292B28BB089580E0E7DF89E0B1
S11300F0E1DF8FEFDFDF80E0EDDF80E0DFDF8AE04C
S1130100D9DF8FE0D7DF80E0E5DF80E0D7DF8BE069
S1130110D1DF83E0CFDF80E0DDDF80E0CFDF8CE084
S1130120C9DF81E0C7DF80E0D5CF0895CF93DF93A7
S1130130D82FC62F80E0C2DF8D2FBCDF8C2FBADF13
S113014080E0C8DFDF91CF910895EF92FF920F9383
S11301501F93CF93DF93CDB7DEB728970FB6F894EC
S1130160DEBF0FBECDBF9C0199230CF039C0319581
S113017021953109EAE0F0E0C901BF0191D08C0179
S1130180C901801B910BBF018BD0CB01BF0188D06B
S11301907C01281B390BC901801B910B64E670E0BC
S11301A07FD0CB01BF017CD01A830983FC82EB8210
S11301B09E838D83F887EF8311E00FC0E12FF0E079
S11301C03197EE0FFF1F81E090E08C0F9D1FE80F29
S11301D0F91F6081812FAADF1F5F153078F33FC0BC
S11301E00AE010E0B8015CD0FC01C9018E1B9F0B32
S11301F0B80156D0CB01B80153D07C01C9018E1986
S11302009F098E1B9F0B64E670E04AD0CB01B801B6
S113021047D08C01C901801B910B8E199F098E1B3D
S11302209F0B68EE73E03CD0FA83E983FC82EB8297
S11302301E830D8378876F8311E00FC0E12FF0E0F8
S11302403197EE0FFF1F81E090E08C0F9D1FE80FA8
S1130250F91F6081812F6ADF1F5F153078F32896BC
S11302600FB6F894DEBF0FBECDBFDF91CF911F91C3
S11302700F91FF90EF900895CF9381E087BB0FDF3C
S113028034DFC1E004C060E08C2F50DFCF5FC530A5
S1130290D0F381E49EEF59DF81E090E0CF9108959F
S11302A097FB072E16F4009406D077FD08D00BD0E8
S11302B007FC05D03EF4909581959F4F0895709565
S11302C061957F4F0895AA1BBB1B51E107C0AA1F6C
S11302D0BB1FA617B70710F0A61BB70B881F991FE3
S11302E05A95A9F780959095BC01CD010895F8948D
S10502F0FFCF3A
S9030000FC
